{
  "abi": [
    {
      "inputs": [],
      "stateMutability": "nonpayable",
      "type": "constructor"
    },
    {
      "inputs": [],
      "name": "ChallengeExpired",
      "type": "error"
    },
    {
      "inputs": [],
      "name": "ChallengeNotStarted",
      "type": "error"
    },
    {
      "inputs": [],
      "name": "InsufficientWager",
      "type": "error"
    },
    {
      "inputs": [],
      "name": "Motivate_AlreadyRecorded",
      "type": "error"
    },
    {
      "inputs": [],
      "name": "Motivate_DuplicateChallenger",
      "type": "error"
    },
    {
      "inputs": [],
      "name": "Motivate_NotEnoughDepositAmount",
      "type": "error"
    },
    {
      "inputs": [],
      "name": "Motivate_UserAlreadyRecordedChallenge",
      "type": "error"
    },
    {
      "inputs": [
        {
          "internalType": "address",
          "name": "owner",
          "type": "address"
        }
      ],
      "name": "OwnableInvalidOwner",
      "type": "error"
    },
    {
      "inputs": [
        {
          "internalType": "address",
          "name": "account",
          "type": "address"
        }
      ],
      "name": "OwnableUnauthorizedAccount",
      "type": "error"
    },
    {
      "anonymous": false,
      "inputs": [
        {
          "indexed": true,
          "internalType": "address",
          "name": "previousOwner",
          "type": "address"
        },
        {
          "indexed": true,
          "internalType": "address",
          "name": "newOwner",
          "type": "address"
        }
      ],
      "name": "OwnershipTransferred",
      "type": "event"
    },
    {
      "anonymous": false,
      "inputs": [
        {
          "indexed": false,
          "internalType": "address payable[]",
          "name": "s_winners",
          "type": "address[]"
        },
        {
          "indexed": false,
          "internalType": "uint256[]",
          "name": "prizes",
          "type": "uint256[]"
        },
        {
          "indexed": false,
          "internalType": "uint256",
          "name": "timestamp",
          "type": "uint256"
        }
      ],
      "name": "PickedWinners",
      "type": "event"
    },
    {
      "anonymous": false,
      "inputs": [
        {
          "indexed": true,
          "internalType": "address",
          "name": "user",
          "type": "address"
        },
        {
          "indexed": true,
          "internalType": "uint256",
          "name": "challengeID",
          "type": "uint256"
        },
        {
          "indexed": false,
          "internalType": "uint256",
          "name": "amount",
          "type": "uint256"
        }
      ],
      "name": "StartedChallenge",
      "type": "event"
    },
    {
      "inputs": [],
      "name": "DIA_ORACLE_ADDRESS",
      "outputs": [
        {
          "internalType": "address",
          "name": "",
          "type": "address"
        }
      ],
      "stateMutability": "view",
      "type": "function"
    },
    {
      "inputs": [],
      "name": "LOTTERY_DEPLOYED_CONTRACT_ADDRESS",
      "outputs": [
        {
          "internalType": "address",
          "name": "",
          "type": "address"
        }
      ],
      "stateMutability": "view",
      "type": "function"
    },
    {
      "inputs": [
        {
          "internalType": "address",
          "name": "user",
          "type": "address"
        },
        {
          "internalType": "uint256",
          "name": "challengeID",
          "type": "uint256"
        },
        {
          "internalType": "uint8",
          "name": "_n",
          "type": "uint8"
        }
      ],
      "name": "adminRecordFailedDay",
      "outputs": [],
      "stateMutability": "nonpayable",
      "type": "function"
    },
    {
      "inputs": [
        {
          "internalType": "uint256",
          "name": "",
          "type": "uint256"
        }
      ],
      "name": "challengesByID",
      "outputs": [
        {
          "internalType": "uint256",
          "name": "balance",
          "type": "uint256"
        },
        {
          "internalType": "uint256",
          "name": "amountEarned",
          "type": "uint256"
        }
      ],
      "stateMutability": "view",
      "type": "function"
    },
    {
      "inputs": [],
      "name": "getEligibileParticipants",
      "outputs": [
        {
          "internalType": "address payable[]",
          "name": "",
          "type": "address[]"
        }
      ],
      "stateMutability": "view",
      "type": "function"
    },
    {
      "inputs": [],
      "name": "getMinimumDeposit",
      "outputs": [
        {
          "internalType": "uint256",
          "name": "",
          "type": "uint256"
        }
      ],
      "stateMutability": "view",
      "type": "function"
    },
    {
      "inputs": [],
      "name": "getPrizes",
      "outputs": [
        {
          "internalType": "uint256[]",
          "name": "",
          "type": "uint256[]"
        }
      ],
      "stateMutability": "view",
      "type": "function"
    },
    {
      "inputs": [],
      "name": "getWinners",
      "outputs": [
        {
          "internalType": "address payable[]",
          "name": "",
          "type": "address[]"
        }
      ],
      "stateMutability": "view",
      "type": "function"
    },
    {
      "inputs": [],
      "name": "lotteryContract",
      "outputs": [
        {
          "internalType": "contract Lottery",
          "name": "",
          "type": "address"
        }
      ],
      "stateMutability": "view",
      "type": "function"
    },
    {
      "inputs": [
        {
          "internalType": "uint256",
          "name": "",
          "type": "uint256"
        }
      ],
      "name": "monthEnds",
      "outputs": [
        {
          "internalType": "uint256",
          "name": "",
          "type": "uint256"
        }
      ],
      "stateMutability": "view",
      "type": "function"
    },
    {
      "inputs": [],
      "name": "owner",
      "outputs": [
        {
          "internalType": "address",
          "name": "",
          "type": "address"
        }
      ],
      "stateMutability": "view",
      "type": "function"
    },
    {
      "inputs": [],
      "name": "pickWinners",
      "outputs": [],
      "stateMutability": "nonpayable",
      "type": "function"
    },
    {
      "inputs": [
        {
          "internalType": "uint256",
          "name": "challengeID",
          "type": "uint256"
        }
      ],
      "name": "recordChallenge",
      "outputs": [],
      "stateMutability": "nonpayable",
      "type": "function"
    },
    {
      "inputs": [],
      "name": "renounceOwnership",
      "outputs": [],
      "stateMutability": "nonpayable",
      "type": "function"
    },
    {
      "inputs": [
        {
          "internalType": "uint256",
          "name": "stamp",
          "type": "uint256"
        }
      ],
      "name": "setMonthEnd",
      "outputs": [],
      "stateMutability": "nonpayable",
      "type": "function"
    },
    {
      "inputs": [
        {
          "internalType": "uint256",
          "name": "startDate",
          "type": "uint256"
        },
        {
          "internalType": "uint256",
          "name": "amount",
          "type": "uint256"
        }
      ],
      "name": "startChallenge",
      "outputs": [],
      "stateMutability": "payable",
      "type": "function"
    },
    {
      "inputs": [
        {
          "internalType": "address",
          "name": "newOwner",
          "type": "address"
        }
      ],
      "name": "transferOwnership",
      "outputs": [],
      "stateMutability": "nonpayable",
      "type": "function"
    },
    {
      "inputs": [
        {
          "internalType": "address",
          "name": "",
          "type": "address"
        }
      ],
      "name": "userBalances",
      "outputs": [
        {
          "internalType": "uint256",
          "name": "",
          "type": "uint256"
        }
      ],
      "stateMutability": "view",
      "type": "function"
    },
    {
      "inputs": [
        {
          "internalType": "address",
          "name": "",
          "type": "address"
        },
        {
          "internalType": "uint256",
          "name": "",
          "type": "uint256"
        }
      ],
      "name": "userChallenges",
      "outputs": [
        {
          "internalType": "bool",
          "name": "challengeAccepted",
          "type": "bool"
        },
        {
          "internalType": "uint256",
          "name": "amountPaid",
          "type": "uint256"
        },
        {
          "internalType": "uint256",
          "name": "challengeID",
          "type": "uint256"
        },
        {
          "internalType": "uint256",
          "name": "startDate",
          "type": "uint256"
        },
        {
          "internalType": "uint256",
          "name": "paymentPerDay",
          "type": "uint256"
        },
        {
          "internalType": "uint8",
          "name": "currentStreak",
          "type": "uint8"
        },
        {
          "internalType": "uint256",
          "name": "amountOwed",
          "type": "uint256"
        }
      ],
      "stateMutability": "view",
      "type": "function"
    },
    {
      "inputs": [
        {
          "internalType": "address",
          "name": "user",
          "type": "address"
        },
        {
          "internalType": "uint256",
          "name": "challengeID",
          "type": "uint256"
        }
      ],
      "name": "withdrawAtEndOfChallenge",
      "outputs": [],
      "stateMutability": "nonpayable",
      "type": "function"
    }
  ],
  "bytecode": {
    "object": "0x306080526101206040526364c7cc6f60a09081526364f0aaef60c05263651837ef60e052636541166f610100526200003c906003906004620000df565b503480156200004a57600080fd5b503362000057816200008f565b50624c4b4060025560018055600a80546001600160a01b03191673096407a84cc500023b344902cd0db43742603f341790556200014e565b600080546001600160a01b038381166001600160a01b0319831681178455604051919092169283917f8be0079c531659141344cd1fd0a4f28419497f9722a3daafe3b4186f6b6457e09190a35050565b82805482825590600052602060002090810192821562000125579160200282015b8281111562000125578251829063ffffffff1690559160200191906001019062000100565b506200013392915062000137565b5090565b5b8082111562000133576000815560010162000138565b608051611c3c6200016a60003960006116490152611c3c6000f3fe60806040526004361061011f5760003560e01c8063a5ff0a13116100a0578063df15c37e11610064578063df15c37e146103bb578063e9ce674b146103d0578063ec000bb5146103f0578063f2fde38b14610412578063f65ce6041461043257600080fd5b8063a5ff0a131461029c578063b29c662a1461033e578063bf6447d11461035e578063cabef0301461037e578063dc07820f146103a657600080fd5b806363a1c1a3116100e757806363a1c1a314610202578063715018a6146102225780637434fe061461023757806388db13cb1461024a5780638da5cb5b1461026a57600080fd5b8063035cf142146101245780631cefa8431461014857806326224c641461016a578063275d4c601461019757806340d8dc52146101e0575b600080fd5b34801561013057600080fd5b506002545b6040519081526020015b60405180910390f35b34801561015457600080fd5b50610168610163366004611843565b61045a565b005b34801561017657600080fd5b5061013561018536600461188b565b60076020526000908152604090205481565b3480156101a357600080fd5b506101cb6101b23660046118a8565b6008602052600090815260409020805460019091015482565b6040805192835260208301919091520161013f565b3480156101ec57600080fd5b506101f56106c4565b60405161013f91906118c1565b34801561020e57600080fd5b5061016861021d3660046118a8565b610726565b34801561022e57600080fd5b506101686107d0565b61016861024536600461190e565b6107e4565b34801561025657600080fd5b506101356102653660046118a8565b610a79565b34801561027657600080fd5b506000546001600160a01b03165b6040516001600160a01b03909116815260200161013f565b3480156102a857600080fd5b506103046102b7366004611930565b60066020818152600093845260408085209091529183529120805460018201546002830154600384015460048501546005860154959096015460ff94851696939592949193929091169087565b6040805197151588526020880196909652948601939093526060850191909152608084015260ff1660a083015260c082015260e00161013f565b34801561034a57600080fd5b50600a54610284906001600160a01b031681565b34801561036a57600080fd5b506101686103793660046118a8565b610a9a565b34801561038a57600080fd5b506102847348d351ab7f8646239bbade95c3cc6de3ef4a6cec81565b3480156103b257600080fd5b50610168610c9a565b3480156103c757600080fd5b506101f5610fa3565b3480156103dc57600080fd5b506101686103eb366004611930565b611003565b3480156103fc57600080fd5b50610405611410565b60405161013f9190611997565b34801561041e57600080fd5b5061016861042d36600461188b565b61141f565b34801561043e57600080fd5b5061028473096407a84cc500023b344902cd0db43742603f3481565b61046261145d565b6001600160a01b03831660008181526006602081815260408084208785528252808420815160e081018352815460ff9081161515825260018301548286015260028301548285015260038301546060830152600483015460808301526005830154811660a0830152919094015460c085015294845260098252808420878552909152909120909181908416601581106104fd576104fd6119aa565b602081049091015460ff601f9092166101000a90041615156001036105355760405163109fc54360e01b815260040160405180910390fd5b60008160ff85166015811061054c5761054c6119aa565b602081049091018054921515601f9092166101000a91820260ff909202199092161790556080820151600060646105848360326119d6565b61058e9190611a09565b90506000606461059f8460326119d6565b6105a99190611a09565b60405163a9059cbb60e01b815273ed90b79f66830699e8d411ebc5f99017b65b56b160048201526024810184905290915073818ec0a7fe18ff94269904fced6ae3dae6d6dc0b9063a9059cbb906044016020604051808303816000875af1158015610618573d6000803e3d6000fd5b505050506040513d601f19601f8201168201806040525081019061063c9190611a1d565b5060405163a9059cbb60e01b81523060048201526024810182905273818ec0a7fe18ff94269904fced6ae3dae6d6dc0b9063a9059cbb906044016020604051808303816000875af1158015610695573d6000803e3d6000fd5b505050506040513d601f19601f820116820180604052508101906106b99190611a1d565b505050505050505050565b6060600480548060200260200160405190810160405280929190818152602001828054801561071c57602002820191906000526020600020905b81546001600160a01b031681526001909101906020018083116106fe575b5050505050905090565b61072e61145d565b42811161079b5760405162461bcd60e51b815260206004820152603060248201527f4d6f6e746820656e64206d7573742062652067726561746572207468616e206360448201526f0757272656e742074696d657374616d760841b60648201526084015b60405180910390fd5b600380546001810182556000919091527fc2575a0e9e593c00f959f8c92f12db2869c3395a3b0502d05e2516446f71f85b0155565b6107d861145d565b6107e2600061148a565b565b81428110156108065760405163f06506c560e01b815260040160405180910390fd5b6002543410156108295760405163c76c94e960e01b815260040160405180910390fd5b60015460006108398583866114da565b33600090815260066020908152604080832084845290915290205490915060ff161561087857604051630b63207560e01b815260040160405180910390fd5b60006040518060e001604052806001151581526020018681526020018381526020018781526020016015876108ad9190611a09565b815260006020808301829052604092830182905233808352600680835284842088855283528484208651815490151560ff19918216178255878501516001830155878701516002830155606088015160038301556080880151600483015560a088015160058301805460ff929092169190921617905560c087015191015582526007905290812080549293508792909190610949908490611a3f565b9091555050604051858152829033907ffaf7508e8f17f2992cd9a672fddcf5fed02fc78e12cb37f9ff6a218f156d20709060200160405180910390a36040516323b872dd60e01b81523360048201523060248201526044810186905260009073818ec0a7fe18ff94269904fced6ae3dae6d6dc0b906323b872dd906064016020604051808303816000875af11580156109e6573d6000803e3d6000fd5b505050506040513d601f19601f82011682018060405250810190610a0a9190611a1d565b905080610a595760405162461bcd60e51b815260206004820152601c60248201527f5472616e7366657220746f20636f6e7472616374206661696c656421000000006044820152606401610792565b6001806000828254610a6b9190611a3f565b909155505050505050505050565b60038181548110610a8957600080fd5b600091825260209091200154905081565b3360009081526006602081815260408084208585528252808420815160e081018352815460ff9081161515825260018301548286015260028301548285015260038301546060830190815260048401546080840152600584015490911660a0830152919094015460c085015285855260089092529092209151909190421015610b365760405163cde0e83560e01b815260040160405180910390fd5b8054600090670de0b6b3a764000090610b57906706f05b59d3b200006119d6565b610b619190611a09565b90506000836080015190506000610b7b8560600151611513565b90506000610b8a338884611546565b90508015610c2d5782856000016000828254610ba69190611a3f565b909155505060a08601805190610bbb82611a52565b60ff1690525060c086018051849190610bd5908390611a3f565b9052503360009081526009602090815260408083208a8452909152902060019060ff841660158110610c0957610c096119aa565b602091828204019190066101000a81548160ff021916908315150217905550610c46565b6040516314abac3160e21b815260040160405180910390fd5b8160ff16601403610c5b57610c5b3388611003565b83856001016000828254610c6f9190611a3f565b9091555050506000958652505060086020525060409092208254815560019283015492019190915550565b610ca261145d565b600a546001600160a01b0316610cfa5760405162461bcd60e51b815260206004820152601d60248201527f4c6f747465727920636f6e7472616374206e6f74206465706c6f7965640000006044820152606401610792565b600a546040516307143efb60e41b81526001600160a01b0390911690637143efb090610d2a906004908101611aaf565b600060405180830381600087803b158015610d4457600080fd5b505af1158015610d58573d6000803e3d6000fd5b50505050600a60009054906101000a90046001600160a01b03166001600160a01b031663df15c37e6040518163ffffffff1660e01b8152600401600060405180830381865afa158015610daf573d6000803e3d6000fd5b505050506040513d6000823e601f3d908101601f19168201604052610dd79190810190611ae8565b8051610deb916005916020909101906117b4565b506000610df6611632565b905060005b600554811015610f63576000828281518110610e1957610e196119aa565b602002602001015111610e6e5760405162461bcd60e51b815260206004820152601b60248201527f5072697a6520616d6f756e742063616e6e6f74206265207a65726f00000000006044820152606401610792565b73818ec0a7fe18ff94269904fced6ae3dae6d6dc0b6001600160a01b031663a9059cbb60058381548110610ea457610ea46119aa565b9060005260206000200160009054906101000a90046001600160a01b0316848481518110610ed457610ed46119aa565b60200260200101516040518363ffffffff1660e01b8152600401610f0d9291906001600160a01b03929092168252602082015260400190565b6020604051808303816000875af1158015610f2c573d6000803e3d6000fd5b505050506040513d601f19601f82011682018060405250810190610f509190611a1d565b5080610f5b81611bad565b915050610dfb565b507fbf2ddf5499625ce51304ab475d11fb8ab236df936bbd68ec297b283a0163564960058242604051610f9893929190611bc6565b60405180910390a150565b6060600580548060200260200160405190810160405280929190818152602001828054801561071c576020028201919060005260206000209081546001600160a01b031681526001909101906020018083116106fe575050505050905090565b61100b61145d565b6001600160a01b03821660009081526006602090815260408083208484529091529020805460ff166110755760405162461bcd60e51b815260206004820152601360248201527210da185b1b195b99d9481b9bdd08199bdd5b99606a1b6044820152606401610792565b336001600160a01b038416146111025760405162461bcd60e51b815260206004820152604660248201527f556e617574686f72697a65643a204f6e6c79206368616c6c656e676520696e6960448201527f746961746f72206f72206f776e65722063616e2063616c6c20746869732066756064820152653731ba34b7b760d11b608482015260a401610792565b600581015460ff166015036111ed57600181015460405163a9059cbb60e01b81526001600160a01b0385166004820152602481019190915273818ec0a7fe18ff94269904fced6ae3dae6d6dc0b9063a9059cbb906044016020604051808303816000875af1158015611178573d6000803e3d6000fd5b505050506040513d601f19601f8201168201806040525081019061119c9190611a1d565b50600480546001810182556000919091527f8a35acfbc15ff81a39ae7d344fd709f28e8600b4aa8c65c6b64bfe7fe36bd19b0180546001600160a01b0319166001600160a01b0385161790556113b3565b6005810154600e60ff9091161080159061121057506005810154601560ff909116105b1561130a576004805460018101825560008281527f8a35acfbc15ff81a39ae7d344fd709f28e8600b4aa8c65c6b64bfe7fe36bd19b90910180546001600160a01b0319166001600160a01b03871617905560058301549183015460ff9092169161127a90836119d6565b60405163a9059cbb60e01b81526001600160a01b03871660048201526024810182905290915073818ec0a7fe18ff94269904fced6ae3dae6d6dc0b9063a9059cbb906044016020604051808303816000875af11580156112de573d6000803e3d6000fd5b505050506040513d601f19601f820116820180604052508101906113029190611a1d565b5050506113b3565b6005810154600482015460ff9091169060009061132790836119d6565b60405163a9059cbb60e01b81526001600160a01b03871660048201526024810182905290915073818ec0a7fe18ff94269904fced6ae3dae6d6dc0b9063a9059cbb906044016020604051808303816000875af115801561138b573d6000803e3d6000fd5b505050506040513d601f19601f820116820180604052508101906113af9190611a1d565b5050505b506001600160a01b039091166000908152600660208181526040808420948452939052918120805460ff19908116825560018201839055600282018390556003820183905560048201839055600582018054909116905590910155565b606061141a611632565b905090565b61142761145d565b6001600160a01b03811661145157604051631e4fbdf760e01b815260006004820152602401610792565b61145a8161148a565b50565b6000546001600160a01b031633146107e25760405163118cdaa760e01b8152336004820152602401610792565b600080546001600160a01b038381166001600160a01b0319831681178455604051919092169283917f8be0079c531659141344cd1fd0a4f28419497f9722a3daafe3b4186f6b6457e09190a35050565b604080516020808201859052818301869052606080830185905283518084039091018152608090920190925280519101205b9392505050565b6000806115208342611bfc565b905060006115316201518083611a09565b905061153e601582611c0f565b949350505050565b600060158260ff16106115915760405162461bcd60e51b8152602060048201526013602482015272496e646578206f7574206f6620626f756e647360681b6044820152606401610792565b6001600160a01b038416600090815260096020908152604080832086845290915290208060ff8416601581106115c9576115c96119aa565b602081049091015460ff601f9092166101000a90041615156000036116285760018160ff8516601581106115ff576115ff6119aa565b602091828204019190066101000a81548160ff021916908315150217905550600191505061150c565b600091505061150c565b6040516370a0823160e01b81526001600160a01b037f000000000000000000000000000000000000000000000000000000000000000016600482015260609060009073818ec0a7fe18ff94269904fced6ae3dae6d6dc0b906370a0823190602401602060405180830381865afa1580156116b0573d6000803e3d6000fd5b505050506040513d601f19601f820116820180604052508101906116d49190611c23565b9050600060646116e58360056119d6565b6116ef9190611a09565b9050600060646117008460036119d6565b61170a9190611a09565b90506000606461171b8560026119d6565b6117259190611a09565b6040805160038082526080820190925291925060009190602082016060803683370190505090508381600081518110611760576117606119aa565b6020026020010181815250508281600181518110611780576117806119aa565b60200260200101818152505081816002815181106117a0576117a06119aa565b602090810291909101015295945050505050565b828054828255906000526020600020908101928215611809579160200282015b8281111561180957825182546001600160a01b0319166001600160a01b039091161782556020909201916001909101906117d4565b50611815929150611819565b5090565b5b80821115611815576000815560010161181a565b6001600160a01b038116811461145a57600080fd5b60008060006060848603121561185857600080fd5b83356118638161182e565b925060208401359150604084013560ff8116811461188057600080fd5b809150509250925092565b60006020828403121561189d57600080fd5b813561150c8161182e565b6000602082840312156118ba57600080fd5b5035919050565b6020808252825182820181905260009190848201906040850190845b818110156119025783516001600160a01b0316835292840192918401916001016118dd565b50909695505050505050565b6000806040838503121561192157600080fd5b50508035926020909101359150565b6000806040838503121561194357600080fd5b823561194e8161182e565b946020939093013593505050565b600081518084526020808501945080840160005b8381101561198c57815187529582019590820190600101611970565b509495945050505050565b60208152600061150c602083018461195c565b634e487b7160e01b600052603260045260246000fd5b634e487b7160e01b600052601160045260246000fd5b80820281158282048414176119ed576119ed6119c0565b92915050565b634e487b7160e01b600052601260045260246000fd5b600082611a1857611a186119f3565b500490565b600060208284031215611a2f57600080fd5b8151801515811461150c57600080fd5b808201808211156119ed576119ed6119c0565b600060ff821660ff8103611a6857611a686119c0565b60010192915050565b6000815480845260208085019450836000528060002060005b8381101561198c5781546001600160a01b031687529582019560019182019101611a8a565b60208152600061150c6020830184611a71565b634e487b7160e01b600052604160045260246000fd5b8051611ae38161182e565b919050565b60006020808385031215611afb57600080fd5b825167ffffffffffffffff80821115611b1357600080fd5b818501915085601f830112611b2757600080fd5b815181811115611b3957611b39611ac2565b8060051b604051601f19603f83011681018181108582111715611b5e57611b5e611ac2565b604052918252848201925083810185019188831115611b7c57600080fd5b938501935b82851015611ba157611b9285611ad8565b84529385019392850192611b81565b98975050505050505050565b600060018201611bbf57611bbf6119c0565b5060010190565b606081526000611bd96060830186611a71565b8281036020840152611beb818661195c565b915050826040830152949350505050565b818103818111156119ed576119ed6119c0565b600082611c1e57611c1e6119f3565b500690565b600060208284031215611c3557600080fd5b505191905056",
    "linkReferences": {}
  },
  "methodIdentifiers": {
    "DIA_ORACLE_ADDRESS()": "cabef030",
    "LOTTERY_DEPLOYED_CONTRACT_ADDRESS()": "f65ce604",
    "adminRecordFailedDay(address,uint256,uint8)": "1cefa843",
    "challengesByID(uint256)": "275d4c60",
    "getEligibileParticipants()": "40d8dc52",
    "getMinimumDeposit()": "035cf142",
    "getPrizes()": "ec000bb5",
    "getWinners()": "df15c37e",
    "lotteryContract()": "b29c662a",
    "monthEnds(uint256)": "88db13cb",
    "owner()": "8da5cb5b",
    "pickWinners()": "dc07820f",
    "recordChallenge(uint256)": "bf6447d1",
    "renounceOwnership()": "715018a6",
    "setMonthEnd(uint256)": "63a1c1a3",
    "startChallenge(uint256,uint256)": "7434fe06",
    "transferOwnership(address)": "f2fde38b",
    "userBalances(address)": "26224c64",
    "userChallenges(address,uint256)": "a5ff0a13",
    "withdrawAtEndOfChallenge(address,uint256)": "e9ce674b"
  },
  "id": 24
}